:020000040800F2
:1000000010050020DD0100081B140008D5110008B0
:1000100019140008E9030008F9190008000000009D
:100020000000000000000000000000003F14000875
:10003000EB030008000000003D1400084114000814
:10004000F7010008F7010008F7010008F7010008B0
:10005000F7010008F7010008F7010008F7010008A0
:10006000F7010008F7010008F7010008F701000890
:10007000F7010008F7010008F7010008F701000880
:10008000F7010008F7010008F70100080000000070
:10009000000000000000000000000000F701000860
:1000A000F7010008F7010008F7010008F701000850
:1000B000000000000000000000000000F701000840
:1000C000F7010008F7010008F7010008F701000830
:1000D000F7010008F7010008F70100080000000020
:1000E000F7010008F7010008000000000000000010
:1000F000000000000000000000000000F701000800
:100100000000000000000000F701000800000000EF
:100110000000000000000000F701000800000000DF
:10012000F7010008F7010008F7010008F7010008CF
:10013000F7010008000000000000000000000000BF
:1001400000000000000000000000000000000000AF
:10015000F7010008F7010008F7010008F70100089F
:10016000000000000000000000000000000000008F
:10017000000000000000000000000000000000007F
:10018000F7010008F701000800000000000000006F
:1001900000000000F701000800000000000000005F
:1001A000000000000000000000000000000000004F
:1001B000000000000000000000000000F70100083F
:1001C000F7010008F7010008DFF80CD000F068F82C
:1001D000004800471D1A0008100500200648804707
:1001E00006480047FEE7FEE7FEE7FEE7FEE7FEE71C
:1001F000FEE7FEE7FEE7FEE7ED140008C901000890
:100200002DE9F05F0546002092469B46884606464B
:10021000814640241BE0284641464746224600F0DE
:100220002FF853465A46C01A914110D3114618462A
:10023000224600F016F82D1A67EB01084F462246B9
:100240000120002100F00DF817EB00094E41201E9F
:10025000A4F10104DFDC484631462A464346BDE8A6
:10026000F09F202A04DB203A00FA02F100207047B8
:100270009140C2F1200320FA03F3194390407047E4
:10028000202A04DB203A21FA02F00021704721FAEB
:1002900002F3D040C2F12002914008431946704752
:1002A000064C074D06E0E06840F0010394E80700C3
:1002B00098471034AC42F6D3FFF78AFF7C1A000847
:1002C0009C1A0008454910B54A6822F440324A6039
:1002D0004A6843681A434A6001684A6822F4807297
:1002E0004A6001684A68036942EA03224A60016879
:1002F0004A6822F040724A6001684A6883681A437B
:100300004A6001688A6822F400628A6001688A682B
:10031000C3681A438A60816A6FF07062D1420168D3
:100320008A6822F070628A6001688A680CD0836AE9
:100330001A438A6001688A6822F040528A60016824
:100340008A68C36A1A4301E022F040528A60016859
:100350008A6822F002028A6001688A68836942EA38
:1003600043028A60016A002901684A680FD042F49A
:1003700000624A6001684A6822F460424A6001688B
:100380004A68174C436A04EB43331A4301E022F4F2
:1003900000624A600168CA6A22F47002CA62016897
:1003A000CA6A838B0F4C04EB03531A43CA62016879
:1003B0008A6822F400728A6001688A68036B42EAE4
:1003C00043228A6001688A6822F480628A60016838
:1003D0008A68406942EA8020886010BD002301409D
:1003E00000E0FFFF0000F0FFFEE7704778B5002453
:1003F000009490F83C20012A19D0012280F83C207A
:100400000A6807230568092A13D9EE680A3A02EB3D
:10041000420293409E43EE600B788A680A3B03EBEE
:1004200043039A400368DD682A43DA6010E0022043
:1004300078BD2E6902EB420293409E432E610B78F9
:100440008A6803EB43039A4003681D692A431A61D3
:100450004A681F23072A13D205686E6B521E02EBEF
:10046000820293409E436E630B790A885B1E92B2B0
:1004700003EB83039A4003685D6B2A435A6327E0CA
:1004800005680D2A12D22E6BD21F02EB8202934016
:100490009E432E630B790A88DB1F92B203EB830322
:1004A0009A4003681D6B2A431A6311E0EE6A0D3A05
:1004B00002EB820293409E43EE620B790A880D3B69
:1004C00092B203EB83039A400368DD6A2A43DA623F
:1004D000164B0568144A9D4206D10D68122D03D1B2
:1004E000556845F48005556005689D4218D10B6834
:1004F000102B01D0112B13D1536843F40003536028
:10050000096810290CD10A490A4A0968B1FBF2F1BD
:1005100001EB8101490000E0491E00910029FBD157
:1005200080F83C40002078BD0023014000200140BD
:100530000C00002040420F0070B504004FF0000591
:1005400003D0206C002610B107E0012070BD666466
:1005500084F83C60204600F019F8206CC00610D4E6
:10056000206C20F4885040F0020020642046FFF701
:10057000A9FE6664206C20F0020040F001002064B7
:1005800000E0012584F83C60284670BD00B5006895
:100590000C4987B0884212D10B480021026842F40E
:1005A00080720260006800F4807005904020009026
:1005B0000320CDE901016946044800F01BF807B0AB
:1005C00000BD00000020014044380240000002400D
:1005D00070B5044600F0CAF80546601C02D0044815
:1005E0000078044400F0C2F8401BA042FAD370BD6A
:1005F000000000202DE9F84FDFF84CB100224FF049
:1006000001084FF0030A4FF00F090BF1040E00BF71
:100610000B6808FA02F42340A3427DD14D68022DF5
:1006200001D0122D0ED1D50800EB850CDCF820503E
:100630005607F70E09FA07F6B5430E69BE402E437A
:10064000CCF82060066855000F790AFA05FC07F01F
:10065000030726EA0C06AF40374307604E68012EB9
:1006600005D0022E03D0112E01D0122E0ED1876894
:10067000CE6827EA0C07AE403E4386604668A64334
:100680000C79C4F30014944034434460C4688E6809
:1006900024EA0C04AE402643C6604C68E4004DD505
:1006A0002A4C256845F480452560246822F003051E
:1006B00004F480440094264C2E19D6F80848950777
:1006C0002F0F09FA07F5AC43224DA84201D10025AE
:1006D0000AE0214DA84201D1012505E01F4DA842A5
:1006E00001D1022500E00725BD402543C6F8085882
:1006F000DBF800405D464E689C43F60300D51C4382
:100700002C60DEF8004075464E689C43B60300D569
:100710001C432C600C4D00E010E008352C684E683E
:100720009C43F60200D51C432C60074D0C352C6809
:100730004E689C43B60200D51C432C60521C102A04
:10074000FFF466AFBDE8F88F003C0140443802403A
:100750000030014000000240000402400008024056
:100760000AB1816170470904FBE700000148806815
:1007700070470000000000200248816802781144A0
:1007800081607047000000200B4810B5016841F4FB
:1007900000710160016841F480610160016841F409
:1007A00080710160032000F08BF8002000F006F853
:1007B00000F024F8002010BD003C024070B50D4D43
:1007C00004464FF47A712878B1FBF0F00A490968C1
:1007D000B1FBF0F000F013FB48B9102C07D2002257
:1007E0002146501E00F04CF800206C6070BD0120C6
:1007F00070BD0000000000200C0000201F4808B55C
:10080000016841F480410160006800F4804000907C
:100810001A48001F016841F080510160006800F033
:1008200080500090072000F04BF8002211466FF036
:100830000B0000F025F8002211466FF00A0000F0CE
:100840001FF8002211466FF0090000F019F800228D
:100850001146501F00F014F800221146101F00F03E
:100860000FF800221146901E00F00AF80022BDE8A1
:1008700008401146501E00F003B800004438024002
:10088000F0B40E4B1B680C46C3F30223C3F10705FB
:10089000042D00D90425191D072901D2002300E0E9
:1008A000DB1E012606FA05F1491E214099409E40B3
:1008B000761E16403143F0BC00F0B0BD0CED00E0F8
:1008C000064900F0070208684FF6FF03184040EAA7
:1008D0000220034A10430860704700000CED00E05E
:1008E0000000FA052DE9F0470E46050065D0DFF857
:1008F0001481D8F80000F7B200F00F00B04207D220
:1009000088F80070D8F8000000F00F00B04254D111
:1009100028683D4C810712D5400703D5206840F474
:10092000E05020602878000703D5206840F460403C
:1009300020602068A96820F0F00008432060287833
:10094000C0072DD0304968680839012812D0022824
:1009500013D0032811D00968890700292DDA2168EE
:1009600021F0030101432160FFF700FF814641F2BE
:10097000883A0EE009688903EFE709688901ECE726
:10098000FFF7F4FEA0EB0901514502D90320BDE8B1
:10099000F0872068696800F00C00B0EB810FEFD1A0
:1009A000D8F80010404601F00F01B14207D9077096
:1009B000006800F00F00B04201D00120E7E728787E
:1009C000400705D52068E96820F4E050084320601E
:1009D0002878000706D52068296920F4604040EA9D
:1009E000C100206000F03CF82168084AC1F30311FF
:1009F000515CC840064908600020FFF7DFFE002078
:100A0000C5E70000003C024008380240641A0008B4
:100A10000C00002001480068704700000C00002016
:100A20000448054900680968044AC1F38221515C01
:100A3000C84070470C00002008380240741A0008B3
:100A40000448054900680968044AC1F34231515C11
:100A5000C84070470C00002008380240741A000893
:100A6000154810B5006810F00C02144813D041105E
:100A7000042A0FD0082A0ED10F4C241F22682368A5
:100A800002F03F025B0207D52068C0F38810A0FB8C
:100A9000010106E0084610BD2168C1F38811A1FBE1
:100AA00000010023FFF7ACFB2168C1F30141491CA1
:100AB0004900B0FBF1F010BD083802400024F400FA
:100AC0002DE9F84F05460078DFF800B3C04CC007A9
:100AD0004AD0DBF800105846C1F38101012908D043
:100AE0000068C0F3810002280AD1201D006840027E
:100AF00006D52068800337D56868002872D033E0B7
:100B00006868B0F5803F10D0B0F5A02F206810D0F5
:100B100020F480302060206820F480202060686805
:100B2000A8B1FFF723FE06460DE0206840F48030B0
:100B3000F4E740F480202060F7E700BFFFF716FEDF
:100B4000801B64286FD820688003F7D50CE0FFF77E
:100B50000DFE064605E000BFFFF708FE801B642877
:100B6000F0D820688003F7D42878DFF868828007FF
:100B70004FF0000940D5DBF80010584611F00C0F7B
:100B800009D00068C0F3810002280BD18F48001FF4
:100B90000068400206D42068800715D5E86801285F
:100BA00020D111E0E868B8B10120C8F80000FFF7D3
:100BB000DDFD064605E000BFFFF7D8FD801B0228DB
:100BC000C0D820688007F7D52068296920F0F80090
:100BD00040EAC10020600FE0C8F80090FFF7C6FDB2
:100BE000064606E0EFE000BFFFF7C0FD801B0228CD
:100BF00019D820688007F7D42878000722D5734ECB
:100C0000754869696C3679B101210160FFF7AEFD65
:100C1000074604E0FFF7AAFDC01B022803D830688E
:100C20008007F7D50EE089E0C0F80090FFF79EFD41
:100C3000074604E0FFF79AFDC01B02287ED8306803
:100C40008007F7D42878400768D5DFF880A100270F
:100C50000AF1380ADAF80000C0000BD4DAF8001004
:100C600041F08051CAF80010DAF80000012700F0C6
:100C700080500090594E3068C00510D4306840F460
:100C800080703060FFF772FD009005E0FFF76EFDA9
:100C90000099401A022851D83068C005F6D54B4E4D
:100CA000A868683601280FD00528306810D020F0D9
:100CB00001003060306820F004003060A868B8B1EE
:100CC000FFF754FD00900FE0306840F00100F4E7BA
:100CD00040F004003060F7E7FFF748FD0099411A43
:100CE00041F28830814266D830688007F4D50EE042
:100CF000FFF73CFD009007E0FFF738FD0099411A2F
:100D000041F28830814256D830688007F4D42FB140
:100D1000DAF8001021F08051CAF80010A869D0B3A9
:100D2000DBF80010C1F3810102294CD002284846AB
:100D300007D0C8F86000FFF719FD00E03BE005466A
:100D40003CE04746C8F86000FFF710FD064604E0A7
:100D5000FFF70CFD801B02282DD820688001F7D4F6
:100D6000F5E907010843E9681D4A490802EB01411A
:100D7000AA6841EA82110843297C40EA0160297D82
:100D800040EA01711148001F016001203866FFF739
:100D9000EDFC054605E014E0FFF7E8FC401B0228E7
:100DA00009D820688001F7D50BE000BFFFF7DEFC13
:100DB000401B022802D90320BDE8F88F206880017B
:100DC000F4D40020F8E70120F6E7000008380240DC
:100DD0000038024000004742800E47420070004049
:100DE0000000FFFF4FF0E0210428086903D020F045
:100DF00004000861704740F00400FAE7704710B53E
:100E0000401EB0F1807F01D3012010BD4FF0E024DF
:100E100060610F21601700F001FB0020A061072036
:100E20002061002010BD10B5FFF7E8FF10BD30B500
:100E300090F83820012A20D0012280F8382002239F
:100E400080F8393003685C6824F070045C600368E3
:100E50005C680D682C435C6003689C6824F0800427
:100E60009C6003689C6849680C439C6080F839204A
:100E7000002180F83810084630BD022030BD10B582
:100E8000040003D094F8390010B107E0012010BD30
:100E9000002084F83800204600F00CF8022084F886
:100EA0003900211D206800F04BFB012084F8390037
:100EB000002010BD08B500680C49884208D10C48D4
:100EC000016841F008010160006800F008000BE0D3
:100ED0000849884209D10648001D016841F4803163
:100EE0000160006800F48030009008BD000C0040F4
:100EF000403802400040014070B5044690F8380088
:100F0000012817D0012584F83850022084F83900D0
:100F10002068826822F0770222F47F4282600868AB
:100F2000502837D00DDC202859D005DC88B3102894
:100F300041D151E0022070BD302853D040283AD131
:100F40003FE060282ED070280BD0B0F5805F03D032
:100F5000B0F5005F2FD110E02068816821F0070113
:100F600015E0CB68D1E90121206800F017FB21686A
:100F7000886840F0770088601DE0CB68D1E90121E6
:100F8000206800F00BFB2068816841F4804181609B
:100F900011E01EE0CA684968206800F0B3FB5021E8
:100FA000206806E0CA684968206800F0BCFB602140
:100FB000206800F0FDFA84F83950002084F83800E9
:100FC00070BDCA684968206800F09CFB4021206819
:100FD000EFE700212068ECE710212068E9E72021F5
:100FE0002068E6E730212068E3E7000000B50068EC
:100FF000084985B088420BD10120009002200021D1
:10100000CDE90101CDE9031069460348FFF7F2FA83
:1010100005B000BD000C00400000024070B5044661
:1010200090F838000D4601280DD0012684F838606C
:10103000022084F8390042B1042A18D0082A2AD0A4
:101040000C2A4DD139E0022070BD206800F0B8FABA
:101050002068816941F0080181612068816921F07F
:1010600004018161206881692A69114311E02068C7
:1010700000F0CEFA2068816941F400618161206846
:10108000816921F480618161206881692A6941EA6E
:101090000221816124E0206800F0E6FA2068C1693D
:1010A00041F00801C1612068C16921F00401C161FA
:1010B0002068C1692A69114311E0206800F000FB33
:1010C0002068C16941F40061C1612068C16921F4EF
:1010D0008061C1612068C1692A6941EA0221C16158
:1010E00084F83960002084F8380070BD10B5040021
:1010F00003D094F8390010B107E0012010BD0020A2
:1011000084F83800204600F00CF8022084F83900FA
:10111000211D206800F014FA012084F83900002015
:1011200010BD704770B5040004D094F83900002554
:1011300010B106E0012070BD84F83850204600F060
:1011400023F8242084F839002068C16821F4005174
:10115000C160204600F0FAFA2068016921F490414C
:1011600001612068416921F02A0141612068C1685C
:1011700041F40051C160E563202084F8390084F80F
:101180003A00002070BD000000B500680E4987B02D
:10119000884216D10D48016841F4003101600068B1
:1011A000694600F4003005900C2000900220019068
:1011B0000120029003200390072004900448FFF7C9
:1011C00019FA07B000BD000000440040403802405A
:1011D00000000240FEE700007FB5154813490024D7
:1011E00001604FF48031C0E9011404618461114948
:1011F0000462C0E90A140125C460C5614561046345
:10120000FFF79AF918B148210BA000F0F6FB062071
:10121000CDE90005694602940548FFF7E7F8002884
:1012200003D0522104A000F0E8FB7FBD0020014064
:10123000100000200100000F2E2E2F5372632F612B
:1012400064632E630000000030B51F4887B000249F
:10125000016841F004010160016801F00401059199
:10126000016841F080010160016801F08001059191
:10127000016841F001010160016801F0010105917F
:10128000016841F0020101600068104D00F00200A9
:101290000590002220212846FFF762FA4FF4005003
:1012A00000900B48CDE9010469460A48FFF7A2F90E
:1012B000202000900120CDE90104694628460394CE
:1012C000FFF798F907B030BD303802400000024007
:1012D000000021100008024010B522488EB02049BD
:1012E0000024C0E900148460C4600461FFF7C7FDF6
:1012F00018B140211CA000F080FB4FF480500790F3
:1013000007A91848FFF7F8FD18B1462116A000F00C
:1013100074FB1448FFF7EAFE18B14B2112A000F04D
:101320006CFB0B940BA90F480C94FFF780FD18B1D0
:1013300052210DA000F061FB6020CDE90004029471
:101340000022694607480494FFF768FE18B15B2144
:1013500005A000F052FB0348FFF748FE0EB010BD99
:10136000000C0040580000202E2E2F5372632F7463
:10137000696D2E63000000001FB50F480D49016024
:10138000002141608160C1600161FFF778FD18B103
:101390006D210AA000F031FB4FF4805000906946A7
:1013A0000548FFF7A9FD002803D0732103A000F032
:1013B00024FB1FBD00400140940000202E2E2F531F
:1013C00072632F74696D2E63000000000D4810B524
:1013D0000B4901604FF4E1314160002181600C2232
:1013E000C160C0E904128161C161FFF79BFE002862
:1013F00005D0BDE81040422103A000F0FEBA10BDA8
:1014000000440040D00000202E2E2F5372632F7511
:10141000736172742E630000FEE770470907090EBE
:10142000002806DA00F00F0000F1E02080F8141D1B
:10143000704700F1E02080F8001470477047704753
:1014400010B5FFF799F9BDE81040FFF7ECBC0000BC
:1014500030B5244893B00024016841F08051016008
:10146000006800F0805012901F48016841F440412C
:1014700001600068022500F44040129001200390B2
:101480001020009506950490CDE907404FF4A87010
:10149000099004200A90CDE90B056846FFF710FB80
:1014A00000B1FEE70F20CDE90D054FF48050CDE9E6
:1014B0000F4002210DA81194FFF714FA00B1FEE7C6
:1014C000FFF7A8FA4FF47A71B0FBF1F0FFF797FC41
:1014D0000420FFF787FC00221146501EFFF7D0F9C9
:1014E00013B030BD40380240007000401048016821
:1014F00041F4700101600F48016841F00101016091
:101500000C4A00210832116002680B4B1A4002603D
:10151000031D0A4A1A60026822F48022026005480C
:101520000C3001600249580680390860704700009D
:1015300088ED00E000380240FFFFF6FE1030002486
:1015400030B50268114B124C984201D0A04203D131
:1015500022F070054A682A43984207D0A04205D07D
:101560000C4CA04202D00C4CA04203D122F4407497
:10157000CA68224302608A68C2620A68826298422C
:1015800001D1096901630121416130BD00000140C1
:10159000000C0040004001400048014010B5846844
:1015A00042EA032224F47F440A432243826010BDAE
:1015B000826822F070020A4342F00701816070479E
:1015C00030B5026A22F001020262026A436884694D
:1015D00024F073050C682C4322F002058A682A4324
:1015E0000A4DA8420BD122F00805CA6823F44073C3
:1015F0002A434D6922F004021D438B692B4343604B
:10160000846149684163026230BD0000000001400E
:1016100030B5026A22F010020262026A43688469ED
:101620000D6824F4E64444EA05248D6822F0200283
:1016300042EA05120B4DA8420ED1CD6822F080027D
:1016400042EA05124D6923F4406343EA85038D693C
:1016500022F0400243EA8503436084614968816364
:10166000026230BD0000014030B5026A22F480728F
:101670000262036A4268C46923F4007324F07305AC
:101680000C682C438D6843EA05230C4DA8420ED10B
:10169000CD6823F4006343EA05234D6922F44052E8
:1016A00042EA05128D6923F4806342EA0512426022
:1016B000C4614968C163036230BD0000000001409D
:1016C00030B5026A22F480520262046A4268C36939
:1016D0000D6823F4E64343EA05238D6824F400549F
:1016E00044EA0534064DA84204D14D6922F48042F3
:1016F00042EA85124260C36149680164046230BDF8
:101700000000014010B5036A046A24F00104046279
:10171000846924F0F00444EA021423F00A020A4324
:101720008461026210BD10B5036A23F010030362E6
:101730008369046A23F4704343EA023224F0A0036D
:1017400043EA01118261016210BD00002DE9F04100
:1017500004460068016921F44052E16811430161C7
:101760002168C86849F20C6290432369A268E56960
:101770001A4363692B431A430243CA6021684869CC
:1017800020F44072A06910434861E1696425B1F515
:10179000004F9748974A21684FF032083FD0914256
:1017A00001D081427CD1FFF74BF900EBC00101EB86
:1017B000001061688900B0FBF1F6FFF741F900EB1A
:1017C000C00101EB001061688900B0FBF1F0B0FBD3
:1017D000F5F06FF01801484306EB800108EB0110AB
:1017E000B0FBF5F000F0F006FFF72AF900EBC001BE
:1017F00001EB001061688900B0FBF1F0B0FBF5F07F
:1018000006EB0016FFF71CF900EBC00101EB00101E
:1018100061688900B0FBF1F7FFF712F9D2E091425D
:1018200001D081423DD1FFF70BF900EBC00101EB84
:10183000001061684900B0FBF1F0B0FBF5F0060163
:10184000FFF7FEF800EBC00101EB001061684900F2
:10185000B0FBF1F7FFF7F4F800EBC00101EB00106B
:1018600061684900B0FBF1F0B0FBF5F06FF01801D2
:10187000484307EB800108EBC100B0FBF5F000F036
:10188000F80006EB4006FFF7DBF800EBC00101EBC8
:10189000001061684900B0FBF1F7FFF7D1F83CE0B8
:1018A00055E0FFF7BDF800EBC00101EB00106168E7
:1018B0004900B0FBF1F0B0FBF5F00601FFF7B0F81E
:1018C00000EBC00101EB001061684900B0FBF1F7CB
:1018D000FFF7A6F800EBC00101EB001061684900BA
:1018E000B0FBF1F0B0FBF5F06FF01801484307EBE7
:1018F000800108EBC100B0FBF5F000F0F80006EB4A
:101900004006FFF78DF800EBC00101EB00106168A5
:101910004900B0FBF1F7FFF783F800EBC00101EBE2
:10192000001061684900B0FBF1F0B0FBF5F06FF01A
:101930001801484307EB800108EBC100B0FBF5F04C
:1019400000F00700216830448860BDE8F081FFF7AF
:1019500067F800EBC00101EB001061688900B0FB83
:10196000F1F6FFF75DF800EBC00101EB00106168D4
:101970008900B0FBF1F0B0FBF5F06FF018014843BF
:1019800006EB800108EB0110B0FBF5F000F0F0066B
:10199000FFF746F800EBC00101EB00106168890019
:1019A000B0FBF1F0B0FBF5F006EB0016FFF738F8EE
:1019B00000EBC00101EB001061688900B0FBF1F79A
:1019C000FFF72EF800EBC00101EB00106168890001
:1019D000B0FBF1F0B0FBF5F06FF01801484307EBF6
:1019E000800108EB0110B0FBF5F000F00F00A9E753
:1019F0000014014000100140FEE7FEE702E008C8C5
:101A0000121F08C1002AFAD170477047002001E078
:101A100001C1121F002AFBD170470000FEF7B4FE7F
:101A2000FFF716FDFFF710FCFFF7D0FCFFF7D4FB24
:101A3000FFF752FCFFF7A0FC094D4FF4FA740022A7
:101A400020212846FEF78CFE2046FEF7C1FD01222C
:101A500020212846FEF784FE2046FEF7B9FDEEE77A
:101A6000000002400000000000000000010203042A
:101A70000607080900000000010203049C1A000880
:101A80000000002010000000FC190008AC1A00083B
:101A900010000020000500000C1A000801000000E2
:0C1AA00010000000000000000024F40012
:04000005080001C925
:00000001FF
